:020000040800F2
:1000000000500020111A0008451800084B1800087D
:1000100051180008571800085D180008000000007B
:10002000000000000000000000000000631800084D
:100030006F180008000000007B18000887180008EF
:10004000591A0008591A0008591A0008591A0008C4
:10005000591A0008591A0008591A0008591A0008B4
:10006000591A0008591A0008591A0008591A0008A4
:10007000591A0008591A0008591A0008591A000894
:10008000591A0008591A0008591A0008591A000884
:10009000591A0008591A0008591A0008591A000874
:1000A000591A0008591A0008591A0008591A000864
:1000B00095180008591A0008591A0008591A00081A
:1000C000591A0008591A0008591A0008591A000844
:1000D000591A0008591A0008591A0008591A000834
:1000E000A9180008591A0008591A00080000000051
:1000F0000000000000000000000000000000000000
:0C01000000000000000000005FF808F1A3
:10010C0010B5054C237833B9044B13B10448AFF345
:10011C0000800123237010BDC400002000000000EB
:10012C001C45000808B5034B1BB103490348AFF34A
:10013C00008008BD00000000C80000201C4500081D
:10014C0080B400AF064B1B68012B04D1044B00227A
:10015C001A60012300E000231846BD4680BC70479E
:10016C00E000002080B400AF034B01221A6000BFF6
:10017C00BD4680BC704700BFE000002080B500AFDA
:10018C00204B1B68204A1360204B1B681D4A1360D0
:10019C0002211F4801F074FF03461A461B4B1A60DC
:1001AC00194B1A68174B1B689A4229D1154B1A68C0
:1001BC00164B1B689A4223D1164B1A68134B1B68BB
:1001CC009A420DD0114B1B68124A13600F4B1B68DF
:1001DC00002B15D1FFF7C6FF0F4BC8221A600FE09A
:1001EC000D4B1B68013B0C4A13600B4B1B68002B1F
:1001FC0006D1064B1B68002B02D1064B01221A605C
:10020C0000BF80BD0400002000000020080000207A
:10021C00000801400C0000203000002080B400AF2A
:10022C00064B1B68012B04D1044B00221A600123DE
:10023C0000E000231846BD4680BC7047E400002057
:10024C0080B400AF034B01221A6000BFBD4680BCD6
:10025C00704700BFE400002080B500AF204B1B6846
:10026C00204A1360204B1B681D4A136010211F4845
:10027C0001F006FF03461A461B4B1A60194B1A680D
:10028C00174B1B689A4229D1154B1A68164B1B68E1
:10029C009A4223D1164B1A68134B1B689A420DD005
:1002AC00114B1B68124A13600F4B1B68002B15D1A6
:1002BC00FFF7C6FF0F4BC8221A600FE00D4B1B68EF
:1002CC00013B0C4A13600B4B1B68002B06D1064BF1
:1002DC001B68002B02D1064B01221A6000BF80BDA7
:1002EC00140000201000002018000020000801401D
:1002FC001C0000203400002080B400AF064B1B68AB
:10030C00012B04D1044B00221A60012300E00023CE
:10031C001846BD4680BC7047E800002080B400AF92
:10032C00034B01221A6000BFBD4680BC704700BF62
:10033C00E800002080B500AF204B1B68204A1360FA
:10034C00204B1B681D4A136001211F4801F098FEC9
:10035C0003461A461B4B1A60194B1A68174B1B683D
:10036C009A4229D1154B1A68164B1B689A4223D115
:10037C00164B1A68134B1B689A420DD0114B1B6815
:10038C00124A13600F4B1B68002B15D1FFF7C6FFE9
:10039C000F4BC8221A600FE00D4B1B68013B0C4A37
:1003AC0013600B4B1B68002B06D1064B1B68002BF4
:1003BC0002D1064B01221A6000BF80BD2400002030
:1003CC002000002028000020000C01402C00002000
:1003DC003800002080B582B002AFB44B1B68013BE3
:1003EC00032B00F2598101A252F823F009040008F2
:1003FC00710400087305000803060008002301932C
:10040C000023009340238022A949AA4801F08AFACC
:10041C0000230193002300934FF400734FF4807278
:10042C00A549A54801F07EFA00230193002300930F
:10043C004FF4806310229E499D4801F073FA00230B
:10044C00019300230093202308229949984801F036
:10045C0069FA964B02221A60984B1B68184601F0F9
:10046C0037F820E100F070FD012301930123009384
:10047C00402380228E498F4801F054FA01230193C6
:10048C00012300934FF400734FF480728A498A4819
:10049C0001F048FA894B1A68894B1B68D31A184625
:1004AC0001F064F80346002B23D0864B1B6803F540
:1004BC007A73854A82FB03129211DB17D31A194601
:1004CC00422000F0EDFC01230193002300934FF434
:1004DC00806310227649764801F024FA01230193B7
:1004EC0000230093202308227149714801F01AFA65
:1004FC002BE0744B1B6803F57A73734A82FB03126F
:10050C009211DB17D21A714B1B686F4981FB0301E7
:10051C008911DB175B1A13441946422000F0C0FC0A
:10052C0000230193012300934FF480631022604950
:10053C005F4801F0F7F90023019301230093202376
:10054C0008225B495A4801F0EDF9614B1B68012BFD
:10055C0040F0A480554B04221A60594B1B68184676
:10056C0000F0B6FF9AE000F0EFFC012301930023AA
:10057C000093402380224E494E4801F0D3F90123C9
:10058C000193002300934FF400734FF480724A4997
:10059C00494801F0C7F94B4B1B6803F57A734A4A7B
:1005AC0082FB03129211DB17D31A1946422000F07A
:1005BC0077FC01230193012300934FF480631022F5
:1005CC003B493B4801F0AEF9012301930123009311
:1005DC00202308223649364801F0A4F93C4B1B680D
:1005EC00012B5DD1314B02221A60344B1B6818462B
:1005FC0000F06EFF54E000F0A7FC002301930123F0
:10060C000093402380222A492A4801F08BF90023C9
:10061C000193012300934FF400734FF48072264929
:10062C00254801F07FF9274B1B6803F57A73264A9E
:10063C0082FB03129211DB17D21A244B1B6822493E
:10064C0081FB03018911DB17CB1A13441946422095
:10065C0000F026FC01230193012300934FF48063E7
:10066C0010221349124801F05DF901230193012373
:10067C000093202308220E490D4801F053F9144B26
:10068C001B68012B0ED1094B03221A600F4B1B6800
:10069C00184600F01DFF05E000BF04E000BF02E0BB
:1006AC0000BF00E000BF00BFBD4680BD3C00002085
:1006BC00000C0140001001400008014044000020E3
:1006CC004C00002000010020D34D62104800002097
:1006DC000401002080B582B002AF974B1B68052B3C
:1006EC0000F2C18201A252F823F000BF29070008D2
:1006FC0011070008B5070008F9080008830A00086C
:10070C00C50B0008FFF766FEFFF71AFD0346002B2A
:10071C0000F0D682884B00221A60D1E200230193AC
:10072C0000230093402380228449854801F0FAF885
:10073C0000230193002300934FF400734FF4807255
:10074C008049804801F0EEF80023019300230093C8
:10075C004FF4806310227949784801F0E3F80023C4
:10076C00019300230093202308227449734801F05D
:10077C00D9F8754B1B68754A1360754B1B68754A25
:10078C001360754B1B68754A136000F060FB6A4B75
:10079C0002221A60FA2000F0CFFE932000F0B2FE85
:1007AC00992000F095FE94E26D4B1B68012B38D11B
:1007BC00992000F08DFE0021012000F04FFB6948CC
:1007CC0000F030FB0021022000F048FB664800F0EE
:1007DC0029FB0C21022000F041FB5B4B1B6842F211
:1007EC000F7293420DDC584B1B68604A82FB03125C
:1007FC009211DB17D31A1A465D495E4803F004FBCD
:10080C000CE0514B1B68594A82FB03129211DB1707
:10081C00D31A1A465849574803F0F6FA554800F0CF
:10082C0001FB564B1B68012B25D1FA2000F084FEEE
:10083C0052230093402380224049414801F08EF816
:10084C00522300934FF400734FF480723D493D489E
:10085C0001F084F8522300934FF48063102237493F
:10086C00364801F07BF852230093202308223349A9
:10087C00324801F073F8FFF73FFD0346002B0CD014
:10088C00314B1B68A3F57A732F4A13602E4B1B68F0
:10089C00002B02DA2C4B00221A60FFF7BFFC034638
:1008AC00002B0ED0284B1B6803F57A73264A136075
:1008BC00254B1B68324A934203DD234B4FF47A726B
:1008CC001A60FFF73DFC0346002B00F0FB8100F0A3
:1008DC00BEFA194B03221A60FA2000F02DFE932069
:1008EC0000F010FE992000F0F3FDEBE10021012057
:1008FC0000F0B4FA234800F095FA0021022000F031
:10090C00ADFA214800F08EFA0C21022000F0A6FA74
:10091C00114B1B6842F20F72934237DC0E4B1B6873
:10092C00124A82FB03129211DB17D31A1A46104992
:10093C00104803F069FA36E040000020000C01403A
:10094C00001001400008014044000020EC00002091
:10095C004C000020F400002048000020F000002093
:10096C00040100203445000844450008D34D6210B2
:10097C00504500082C0100205445000814010020AB
:10098C00B88201005845000868450008B74B1B6841
:10099C00B74A82FB03129211DB17D31A1A46B549D8
:1009AC00B54803F031FAB44800F03CFAB34B1B687D
:1009BC00012B25D1FA2000F0BFFD592300934023D1
:1009CC008022AF49AF4800F0C9FF592300934FF480
:1009DC0000734FF48072AC49AB4800F0BFFF592351
:1009EC0000934FF480631022A549A54800F0B6FF90
:1009FC005923009320230822A149A14800F0AEFFFF
:100A0C00FFF77AFC0346002B0CD0984B1B68A3F520
:100A1C007A73964A1360954B1B68002B02DA934B42
:100A2C0000221A60FFF7FAFB0346002B0ED08F4B07
:100A3C001B6803F57A738D4A13608C4B1B68934AC1
:100A4C00934203DD894B4FF47A721A60FFF778FBFF
:100A5C000346002B00F0388100F0F9F98C4B04228E
:100A6C001A60FA2000F068FD932000F04BFD9920ED
:100A7C0000F02EFD28E10021012000F0EFF985485F
:100A8C0000F0D0F90021022000F0E8F9824800F0D3
:100A9C00C9F90C21022000F0E1F9804B1B6842F2ED
:100AAC000F7293420DDC7D4B1B68714A82FB031263
:100ABC009211DB17D31A1A4679496F4803F0A4F93F
:100ACC000CE0764B1B686A4A82FB03129211DB170F
:100ADC00D31A1A466749684803F096F9664800F03D
:100AEC00A1F9664B1B68012B25D1FA2000F024FDDF
:100AFC0047230093402380226149624800F02EFF77
:100B0C00472300934FF400734FF480725E495E48A4
:100B1C0000F024FF472300934FF4806310225849C0
:100B2C00574800F01BFF4723009320230822544909
:100B3C00534800F013FFFFF7DFFB0346002B0CD0EC
:100B4C00564B1B68A3F57A73544A1360534B1B68BE
:100B5C00002B02DA514B00221A60FFF75FFB0346B1
:100B6C00002B0ED04D4B1B6803F57A734B4A136068
:100B7C004A4B1B68454A934203DD484B4FF47A724B
:100B8C001A60FFF7DDFA0346002B00F09F8000F09F
:100B9C005EF900F0A1F80346002B09D0992000F073
:100BAC0097FC932000F0AEFC394B05221A608DE0C7
:100BBC00374B01221A6089E0002301930023009334
:100BCC004FF400734FF480722F492F4800F0AAFEA7
:100BDC0000230193002300934FF4806310222849D3
:100BEC00274800F09FFE002301930023009320234D
:100BFC0008222349224800F095FE0021012000F034
:100C0C002DF9284800F00EF90021022000F026F9F9
:100C1C00254800F007F90A21022000F01FF92348AB
:100C2C0000F000F9224B1B68224A1360224B1B6810
:100C3C000E4A1360214B1B68184A1360FFF780FAA9
:100C4C000346002B04D000F002F9114B02221A606B
:100C5C00FFF752FB0346002B3AD000F0F8F80C4B90
:100C6C0001221A6034E000BF33E000BF48000020CE
:100C7C00D34D6210544500082C01002014010020B3
:100C8C00000C01400010014000080140B882010036
:100C9C004000002074450008844500084C000020EA
:100CAC005045000890450008A4450008AC450008D4
:100CBC00EC00002044000020F0000020F400002094
:100CCC0000BF06E000BF04E000BF02E000BF00E090
:100CDC0000BF00BFBD4680BD80B400AF074B1A6893
:100CEC00074B1B681A44074B1B689A4201D001231F
:100CFC0000E000231846BD4680BC70474800002029
:100D0C004C0000204400002080B586B002AF0346A2
:100D1C00FB71FB7923F00F03FB73FB791B01BB7396
:100D2C00FB7B43F00C03DBB23B72FB7B43F0080311
:100D3C00DBB27B72BB7B43F00C03DBB2BB72BB7BC5
:100D4C0043F00803DBB2FB7207F108026423009343
:100D5C0004234221034801F029FB00BF1037BD4694
:100D6C0080BD00BF3C01002080B586B002AF0346B9
:100D7C00FB71FB7923F00F03FB73FB791B01BB7336
:100D8C00FB7B43F00D03DBB23B72FB7B43F00903AF
:100D9C00DBB27B72BB7B43F00D03DBB2BB72BB7B64
:100DAC0043F00903DBB2FB7207F1080264230093E2
:100DBC0004234221034801F0F9FA00BF1037BD4665
:100DCC0080BD00BF3C01002080B500AF3320FFF791
:100DDC009BFF3220FFF798FF322000F09BFE28206B
:100DEC00FFF792FF322000F095FE0120FFF78CFFF9
:100DFC00322000F08FFE0620FFF786FF322000F035
:100E0C0089FE0C20FFF780FF322000F083FE0220C9
:100E1C00FFF77AFF322000F07DFE8020FFF774FF91
:100E2C0000BF80BD80B582B000AF786006E07B6803
:100E3C005A1C7A601B781846FFF796FF7B681B7864
:100E4C00002BF4D100BF00BF0837BD4680BD80B574
:100E5C0000AF0120FFF758FF00BF80BD80B584B004
:100E6C0000AF786039607B68012B08D17B68DAB2FF
:100E7C003B68DBB21344DBB27F33FB7308E03B68A7
:100E8C00DBB24033DBB25BB263F07F035BB2FB736C
:100E9C00FB7B1846FFF738FF00BF1037BD4680BDFF
:100EAC0080B582B000AF03463960FB71FB79412BF2
:100EBC001CD100210120FFF7D1FF1E48FFF7B2FF24
:100ECC000C210120FFF7CAFF3B68092B05DC3A68AF
:100EDC0019491A4802F098FF04E03A681849174873
:100EEC0002F092FF1548FFF79DFF1EE0FB79422BA5
:100EFC001BD100210220FFF7B1FF1248FFF792FF30
:100F0C000C210220FFF7AAFF3B68092B05DC3A688D
:100F1C0009490A4802F078FF04E03A680849074892
:100F2C0002F072FF0548FFF77DFF00BF0837BD4692
:100F3C0080BD00BFB4450008C04500082C0100204E
:100F4C00C4450008C845000880B500AF0B4B1B68B2
:100F5C00012B10D1962000F0D5FA094B1B6803F534
:100F6C007A73084A82FB03129211DB17D31A1946C3
:100F7C004120FFF795FF00BF80BD00BF0C01002092
:100F8C0000010020D34D621080B500AF00F060FD71
:100F9C0000F01CF800F000F900F0D4F800F086F82E
:100FAC0000F056F8074802F0B7F900F0BFF932220A
:100FBC000021054800F0CAF9FFF706FF00F026FAF9
:100FCC00FCE700BF90010020E106000880B590B05E
:100FDC0000AF07F1180328220021184602F056FE34
:100FEC003B1D00221A605A609A60DA601A61022373
:100FFC00BB610123BB621023FB6202237B630023D2
:10100C00BB634FF46013FB6307F11803184601F040
:10101C0025FD0346002B01D000F082F90F237B60E5
:10102C000223BB600023FB604FF480633B61002311
:10103C007B613B1D0221184601F090FF0346002BFB
:10104C0001D000F06DF900BF4037BD4680BD0000F7
:10105C0080B500AF124B134A1A60114B124A5A60FA
:10106C000F4B00229A600E4B0022DA600C4B4FF4AF
:10107C0080421A610A4B00225A61094B00229A6184
:10108C00074B0022DA61064B00221A62044801F079
:10109C0049F80346002B01D000F042F900BF80BD97
:1010AC003C01002000540040A086010080B586B0B1
:1010BC0000AF07F1080300221A605A609A60DA60E8
:1010CC003B4600221A605A601D4B4FF080421A605A
:1010DC001B4B41F63F725A60194B00229A60184B19
:1010EC000922DA60164B00221A61154B00229A6114
:1010FC00134802F0C1F80346002B01D000F010F9A0
:10110C004FF48053BB6007F1080319460C4802F0FA
:10111C0045FA0346002B01D000F002F900233B6096
:10112C0000237B603B461946054802F027FC03462A
:10113C00002B01D000F0F4F800BF1837BD4680BD7D
:10114C009001002080B500AF114B124A1A60104B71
:10115C004FF4E1325A600E4B00229A600C4B002285
:10116C00DA600B4B00221A61094B0C225A61084BB6
:10117C0000229A61064B0022DA61054802F06EFCEF
:10118C000346002B01D000F0CBF800BF80BD00BFA0
:10119C00D80100200044004080B588B000AF07F1B2
:1011AC00100300221A605A609A60DA604E4B9B69F9
:1011BC004D4A43F0100393614B4B9B6903F01003B2
:1011CC00FB60FB68484B9B69474A43F020039361E3
:1011DC00454B9B6903F02003BB60BB68424B9B698A
:1011EC00414A43F0040393613F4B9B6903F00403B2
:1011FC007B607B683C4B9B693B4A43F008039361E3
:10120C00394B9B6903F008033B603B6800224FF4A9
:10121C004871364800F04BFF00224FF48F61344880
:10122C0000F045FF00228021324800F040FF4FF4CF
:10123C0000533B61304B7B610023BB6107F1100312
:10124C0019462C4800F098FD12233B6100237B616A
:10125C000023BB6107F110031946244800F08CFDF4
:10126C004FF448733B6101237B610023BB61022374
:10127C00FB6107F1100319461C4800F07DFD0123AA
:10128C003B6100237B610023BB6107F1100319460E
:10129C00174800F071FD4FF48F633B6101237B61B4
:1012AC000023BB610223FB6107F1100319461048B0
:1012BC0000F062FD80233B6101237B610023BB6155
:1012CC000223FB6107F1100319460A4800F054FD94
:1012DC0000220021282000F018FD282000F031FD0C
:1012EC0000BF2037BD4680BD001002400008014001
:1012FC00000C0140001001400000111080B582B0BC
:10130C0000AF786000F05AF800F052F9FEF736FFA3
:10131C00FEF7A2FFFFF70EF800BF0837BD4680BDF1
:10132C0080B400AF72B600BFFEE7000080B400AF1F
:10133C00044B00221A60044B00221A6000BFBD4609
:10134C0080BC7047F8000020FC00002080B586B0FF
:10135C0000AFF860B9607A601C2002F087FC03468D
:10136C007B617B69002B21D07B69FA681A607B69F1
:10137C00BA685A607B697A689A607B690022DA6085
:10138C007B6900225A610B4B1A687B699A61094B85
:10139C001B68002B04D0074B1B687A695A6102E06A
:1013AC00054A7B691360034A7B69136000BF1837D9
:1013BC00BD4680BDFC000020F800002080B483B046
:1013CC0000AF114B1B687B6015E07B685B68002BE2
:1013DC0005D07B685B685A1E7B685A6008E07B68A6
:1013EC009A687B685A607B68DB685A1C7B68DA6099
:1013FC007B685B697B607B68002BE6D100BF00BF1C
:10140C000C37BD4680BC7047F800002080B582B018
:10141C0000AF164B1B687B601FE07B68DB68002B02
:10142C0018D07B68DB685A1E7B68DA607B681B68A7
:10143C0098477B689B68002B08D17B683B607B6876
:10144C005B697B60386800F013F806E07B685B69C9
:10145C007B6002E07B685B697B607B68002BDCD186
:10146C0000BF00BF0837BD4680BD00BFF80000209C
:10147C0080B582B000AF78607B68002B1FD07B6892
:10148C009B69002B05D07B689B697A6852695A610D
:10149C0003E07B685B690C4A13607B685B69002B1B
:1014AC0005D07B685B697A6892699A6103E07B6816
:1014BC009B69064A1360786802F0E0FB00E000BF0D
:1014CC000837BD4680BD00BFF8000020FC0000209E
:1014DC0080B483B000AF7860074B1B687A6892FBCE
:1014EC00F3F3064A1360064B00221A6000BF0C3758
:1014FC00BD4680BC704700BF50000020000100209A
:10150C000401002080B483B000AF7860074B1B68E7
:10151C007A6892FBF3F3064A1360064B00221A60BA
:10152C0000BF0C37BD4680BC704700BF5000002088
:10153C00080100200C01002080B483B000AF78605B
:10154C00074B1B687A6892FBF3F3064A1360064B51
:10155C0000221A6000BF0C37BD4680BC704700BF2C
:10156C0050000020100100201401002080B582B032
:10157C0000AF78607B685A1D0C4B1B689A4201DAED
:10158C0000230EE07B685A1D084B1B689A4207DB50
:10159C00064B1B687A689A4202DCFFF758FC00E0A5
:1015AC00012318460837BD4680BD00BF000100204E
:1015BC0080B400AF264B1B68002B05DD244B1B6849
:1015CC00013B234A136002E0224B01221A60224B9A
:1015DC001B68002B05DD204B1B68013B1E4A13606A
:1015EC0013E01E4B01221A601D4B1B68002B02D00E
:1015FC00012B06D009E01A4B1B680133184A136003
:10160C0003E0174B00221A6000BF164B1B68002B1F
:10161C0005DD144B1B68013B124A136013E0124B9F
:10162C0001221A60114B1B68002B02D0012B06D033
:10163C0009E00E4B1B6801330C4A136003E00B4BA3
:10164C0000221A6000BF00BFBD4680BC704700BFBF
:10165C000001002004010020080100200C010020E2
:10166C001801002010010020140100201C01002092
:10167C0080B485B000AF154B9B69144A43F001034D
:10168C009361124B9B6903F00103BB60BB680F4B6A
:10169C00DB690E4A43F08053D3610C4BDB6903F0DA
:1016AC0080537B607B680A4B5B68FB60FB6823F0B4
:1016BC00E063FB60FB6843F00073FB60044AFB686B
:1016CC00536000BF1437BD4680BC70470010024009
:1016DC000000014080B58AB000AF786007F11403B8
:1016EC0000221A605A609A60DA607B681B681D4A97
:1016FC00934232D11C4B9B691B4A43F00803936104
:10170C00194B9B6903F008033B613B694FF4407331
:10171C007B611223BB6103233B6207F1140319465F
:10172C00124800F029FB124B5B687B627B6A43F02A
:10173C00E0637B627B6A43F002037B620C4A7B6A48
:10174C005360094BDB69084A43F40013D361064B21
:10175C00DB6903F40013FB60FB6800BF2837BD4650
:10176C0080BD00BF0054004000100240000C01403E
:10177C000000014080B584B000AF78607B681B68C6
:10178C00B3F1804F13D10C4BDB690B4A43F00103CF
:10179C00D361094BDB6903F00103FB60FB6800229A
:1017AC0000211C2000F0B1FA1C2000F0CAFA00BF86
:1017BC001037BD4680BD00BF0010024080B588B018
:1017CC0000AF786007F1100300221A605A609A602B
:1017DC00DA607B681B68154A934223D1144BDB6992
:1017EC00134A43F40033D361114BDB6903F4003328
:1017FC00FB60FB680E4B9B690D4A43F0040393613D
:10180C000B4B9B6903F00403BB60BB680C233B616F
:10181C0002237B610223FB6107F110031946054883
:10182C0000F0AAFA00BF2037BD4680BD004400403E
:10183C00001002400008014080B400AFFEE780B405
:10184C0000AFFEE780B400AFFEE780B400AFFEE768
:10185C0080B400AFFEE780B400AF00BFBD4680BCD3
:10186C00704780B400AF00BFBD4680BC704780B4E9
:10187C0000AF00BFBD4680BC704780B500AF00F024
:10188C002DF900BF80BD000080B500AF024801F00B
:10189C0095FD00BF80BD00BF9001002080B500AF5A
:1018AC004FF4005000F01CFC00BF80BD80B586B02A
:1018BC0000AF7860144A154BD31A7B617B693B618E
:1018CC00134B1B68002B02D1114B124A1A60104BA0
:1018DC001A687B6813443A699A4207D202F09CF961
:1018EC0003460C221A604FF0FF3309E0084B1B68CB
:1018FC00FB60074B1A687B681344054A1360FB684E
:10190C0018461837BD4680BD00500020000400006A
:10191C00200100203802002080B400AF00BFBD467B
:10192C0080BC704780B584B000AFF860B9601146D8
:10193C001A460B46FB801346BB803A7EFB88194641
:10194C00F86800F0B4FB3A7FBB881946B86800F021
:10195C00AEFB00BF1037BD4680BD000080B584B023
:10196C0000AFF860B96011461A460B46FB8013466F
:10197C00BB80234B1B68012B2FD13B7E592B1FD0D7
:10198C00592B37DC472B0ED0522B33D1FB8801223D
:10199C001946F86800F08BFBBB8801221946B86821
:1019AC0000F085FB27E0FB8801221946F86800F05F
:1019BC007EFBBB8800221946B86800F078FB1AE061
:1019CC00FB8800221946F86800F071FBBB880122E5
:1019DC001946B86800F06BFB0DE0FB880022194635
:1019EC00F86800F064FBBB8800221946B86800F068
:1019FC005EFB00E000BF00BF1037BD4680BD00BFDE
:101A0C001C010020FFF788FF0B480C490C4A0023EF
:101A1C0002E0D458C4500433C4188C42F9D3094A98
:101A2C00094C002301E013600432A242FBD302F004
:101A3C00F9F8FFF7A9FA704700000020C400002055
:101A4C0040460008C400002034020020FEE70000DD
:101A5C0080B500AF084B1B68074A43F010031360B6
:101A6C00032000F047F9002000F008F8FFF700FE13
:101A7C000023184680BD00BF0020024080B582B014
:101A8C0000AF7860124B1A68124B1B7819464FF452
:101A9C007A73B3FBF1F3B2FBF3F3184600F05FF982
:101AAC000346002B01D001230EE07B680F2B0AD8D4
:101ABC00002279684FF0FF3000F027F9064A7B6866
:101ACC001360002300E0012318460837BD4680BD93
:101ADC00540000205C0000205800002080B400AFAF
:101AEC00054B1B781A46054B1B681344034A1360BD
:101AFC0000BFBD4680BC70475C0000202002002067
:101B0C0080B400AF024B1B681846BD4680BC7047C2
:101B1C002002002080B584B000AF7860FFF7F0FFA2
:101B2C00B8607B68FB60FB68B3F1FF3F05D00A4BE4
:101B3C001B781A46FB681344FB6000BFFFF7E0FFFD
:101B4C000246BB68D31AFA689A42F7D800BF00BFA6
:101B5C001037BD4680BD00BF5C00002080B485B04E
:101B6C0000AF78607B6803F00703FB600C4BDB680D
:101B7C00BB60BA684FF6FF031340BB60FB681A02E8
:101B8C00BB68134343F0BF6343F40033BB60044AA8
:101B9C00BB68D36000BF1437BD4680BC704700BF24
:101BAC0000ED00E080B400AF044BDB681B0A03F0CF
:101BBC0007031846BD4680BC704700BF00ED00E02F
:101BCC0080B483B000AF0346FB7197F90730002B4C
:101BDC000BDBFB7903F01F02064997F907305B0911
:101BEC00012000FA02F241F8232000BF0C37BD4659
:101BFC0080BC704700E100E080B483B000AF0346C6
:101C0C003960FB7197F90730002B0ADB3B68DAB2BD
:101C1C000C4997F907301201D2B20B4483F8002318
:101C2C000AE03B68DAB20849FB7903F00F03043B86
:101C3C001201D2B20B441A7600BF0C37BD4680BCE1
:101C4C00704700BF00E100E000ED00E080B489B017
:101C5C0000AFF860B9607A60FB6803F00703FB61C2
:101C6C00FB69C3F10703042B28BF0423BB61FB6989
:101C7C000433062B02D9FB69033B00E000237B6194
:101C8C004FF0FF32BB6902FA03F3DA43BB681A4028
:101C9C007B699A404FF0FF317B6901FA03F3D9431A
:101CAC007B680B40134318462437BD4680BC7047F5
:101CBC0080B582B000AF78607B68013BB3F1807F68
:101CCC0001D301230FE00A4A7B68013B53600F21CB
:101CDC004FF0FF30FFF790FF054B00229A60044B4A
:101CEC0007221A60002318460837BD4680BD00BF86
:101CFC0010E000E080B582B000AF78607868FFF744
:101D0C002DFF00BF0837BD4680BD80B586B000AF43
:101D1C000346B9607A60FB7300237B61FFF742FFD7
:101D2C0078617A68B9687869FFF790FF024697F98D
:101D3C000F3011461846FFF75FFF00BF1837BD463E
:101D4C0080BD80B582B000AF0346FB7197F90730B8
:101D5C001846FFF735FF00BF0837BD4680BD80B57C
:101D6C0082B000AF78607868FFF7A2FF0346184690
:101D7C000837BD4680BD000080B48BB000AF7860E2
:101D8C00396000237B6200233B6269E101227B6A9C
:101D9C0002FA03F3FB613B681B68FA691340BB61F1
:101DAC00BA69FB699A4240F058813B685B689A4A71
:101DBC0093425ED0984A934275D8984A934258D031
:101DCC00964A93426FD8964A934252D0944A934281
:101DDC0069D8944A93424CD0924A934263D8924A1F
:101DEC00934246D0904A93425DD8122B2AD8122B9C
:101DFC0059D801A252F823F07F1E0008591E000882
:101E0C006B1E0008AD1E0008B31E0008B31E0008B0
:101E1C00B31E0008B31E0008B31E0008B31E000852
:101E2C00B31E0008B31E0008B31E0008B31E000842
:101E3C00B31E0008B31E0008B31E0008611E000884
:101E4C00751E0008794A934213D02CE03B68DB687E
:101E5C003B6229E03B68DB6804333B6224E03B686F
:101E6C00DB6808333B621FE03B68DB680C333B628A
:101E7C001AE03B689B68002B02D104233B6213E001
:101E8C003B689B68012B05D108233B627B68FA6990
:101E9C001A6109E008233B627B68FA695A6103E026
:101EAC0000233B6200E000BFBB69FF2B01D87B68BD
:101EBC0001E07B6804337B61BB69FF2B02D87B6A32
:101ECC009B0002E07B6A083B9B003B617B691A68C4
:101EDC000F213B6901FA03F3DB431A40396A3B6972
:101EEC0001FA03F31A437B691A603B685B6803F0E1
:101EFC008053002B00F0B1804D4B9B694C4A43F052
:101F0C00010393614A4B9B6903F00103BB60BB68FF
:101F1C00484A7B6A9B08023352F82330FB607B6A89
:101F2C0003F003039B000F2202FA03F3DB43FA686E
:101F3C001340FB607B68404A934213D07B683F4A56
:101F4C0093420DD07B683E4A934207D07B683D4A52
:101F5C00934201D1032306E0042304E0022302E0B0
:101F6C00012300E000237A6A02F0030292009340FE
:101F7C00FA681343FB602F497B6A9B080233FA68AB
:101F8C0041F823203B685B6803F48013002B06D0D8
:101F9C002D4B9A682C49BB6913438B6006E02A4B86
:101FAC009A68BB69DB43284913408B603B685B68CC
:101FBC0003F40013002B06D0234BDA682249BB69CB
:101FCC001343CB6006E0204BDA68BB69DB431E4948
:101FDC001340CB603B685B6803F40033002B06D0E6
:101FEC00194B5A681849BB6913434B6006E0164BF2
:101FFC005A68BB69DB43144913404B603B685B6810
:10200C0003F48033002B21D00F4B1A680E49BB69A7
:10201C0013430B6021E000BF0000321000003110B0
:10202C0000002210000021100000121000001110FE
:10203C00001002400000014000080140000C01406B
:10204C000010014000140140000401400B4B1A68C1
:10205C00BB69DB43094913400B607B6A01337B622C
:10206C003B681A687B6A22FA03F3002B7FF48EAE6E
:10207C0000BF00BF2C37BD4680BC70470004014038
:10208C0080B485B000AF78600B467B807B689A6823
:10209C007B881340002B02D00123FB7301E000234B
:1020AC00FB73FB7B18461437BD4680BC704780B46D
:1020BC0083B000AF78600B467B8013467B707B78D7
:1020CC00002B03D07A887B681A6103E07B881A04A2
:1020DC007B681A6100BF0C37BD4680BC704700009E
:1020EC0080B582B000AF0346FB80084B5A69FB8871
:1020FC001340002B06D0054AFB885361FB88184619
:10210C0000F006F800BF0837BD4680BD0004014052
:10211C0080B483B000AF0346FB8000BF0C37BD46D4
:10212C0080BC704780B584B000AF78607B68002BB2
:10213C0001D101232BE17B6893F83D30DBB2002BFE
:10214C0006D17B68002283F83C207868FFF7C2FA3E
:10215C007B68242283F83D207B681B681A687B68A7
:10216C001B6822F001021A607B681B681A687B6886
:10217C001B6842F400421A607B681B681A687B6813
:10218C001B6822F400421A6001F030F8F8607B689A
:10219C005B68814A934207D8FB68804A934294BF9C
:1021AC0001230023DBB206E0FB687D4A934294BF17
:1021BC0001230023DBB2002B01D00123E7E0FB68F5
:1021CC00784AA2FB03239B0CBB607B681B685B6893
:1021DC0023F03F017B681B68BA680A435A607B682E
:1021EC001B681B6A23F03F017B685B686A4A934259
:1021FC0002D8BB68013309E0BB684FF4967202FB4E
:10220C0003F3694AA2FB03239B0901337A68126822
:10221C000B4313627B681B68DB6923F44F4222F08B
:10222C00FF027B685B685C498B4219D8FB68591EBE
:10223C007B685B685B00B1FBF3F3591C40F6FC73E5
:10224C000B40002B0AD0FB68591E7B685B685B0057
:10225C00B1FBF3F30133C3F30B0351E004234FE061
:10226C007B689B68002B11D1FB68581E7B685968F2
:10227C000B465B000B44B0FBF3F30133C3F30B03CE
:10228C00002B0CBF01230023DBB212E0FB68581EAD
:10229C007B6859680B469B000B4499000B44B0FBC0
:1022AC00F3F30133C3F30B03002B0CBF0123002307
:1022BC00DBB2002B01D0012322E07B689B68002B52
:1022CC000ED1FB68581E7B6859680B465B000B44AB
:1022DC00B0FBF3F30133C3F30B0343F400430FE000
:1022EC00FB68581E7B6859680B469B000B44990091
:1022FC000B44B0FBF3F30133C3F30B0343F4404340
:10230C00796809681343CB617B681B681B6823F0F1
:10231C00C0017B68DA697B681B6A1A437B681B689F
:10232C000A431A607B681B689B6823F4034323F001
:10233C00FF037A6811697A68D26811437A68126867
:10234C000B4393607B681B68DB6823F0FF017B68A1
:10235C005A697B689B691A437B681B680A43DA607D
:10236C007B681B681A687B681B6842F001021A6064
:10237C007B6800221A647B68202283F83D207B68EE
:10238C0000221A637B68002283F83E200023184643
:10239C001037BD4680BD00BFA08601007F841E00A3
:1023AC00FF083D0083DE1B43D34D621080B588B01F
:1023BC0002AFF8607A601A460B467B8113463B816C
:1023CC00FFF79EFB7861FB6893F83D30DBB2202B66
:1023DC0040F0E0807B690093192301227049F86872
:1023EC0000F064F90346002B01D00223D3E0FB6814
:1023FC0093F83C30012B01D10223CCE0FB68012285
:10240C0083F83C20FB681B681B6803F00103012B5D
:10241C0007D0FB681B681A68FB681B6842F0010256
:10242C001A60FB681B681A68FB681B6822F4006260
:10243C001A60FB68212283F83D20FB68102283F888
:10244C003E20FB6800221A64FB687A685A62FB68BB
:10245C003A895A85FB685B8D9AB2FB681A85FB68D2
:10246C00504ADA6279897B693A6AF86800F09CF81C
:10247C000346002B01D001238DE000233B61FB6858
:10248C001B685B693B61FB681B689B693B613B6933
:10249C0066E07A69396AF86800F022FA0346002B84
:1024AC000DD0FB681B6C042B07D1FB681B681A68EA
:1024BC00FB681B6842F400721A6001236BE0FB6836
:1024CC005B6A1A78FB681B681A61FB685B6A5A1CAA
:1024DC00FB685A62FB685B8D9BB2013B9AB2FB684E
:1024EC005A85FB681B8D013B9AB2FB681A85FB6809
:1024FC001B685B6903F00403042B1BD1FB681B8D69
:10250C00002B17D0FB685B6A1A78FB681B681A6192
:10251C00FB685B6A5A1CFB685A62FB685B8D9BB25A
:10252C00013B9AB2FB685A85FB681B8D013B9AB242
:10253C00FB681A857A69396AF86800F019FA03465B
:10254C00002B0DD0FB681B6C042B07D1FB681B68A0
:10255C001A68FB681B6842F400721A6001231AE0C7
:10256C00FB681B8D002B94D1FB681B681A68FB68F9
:10257C001B6842F400721A60FB68202283F83D202D
:10258C00FB68002283F83E20FB68002283F83C2085
:10259C00002300E0022318461837BD4680BD00BF5B
:1025AC00020010000000FFFF80B588B002AFF86099
:1025BC007A603B600B467B81FB68DB6A7B617B69E5
:1025CC00082B06D07B69012B03D07B6913F5803F68
:1025DC0008D1FB681B681A68FB681B6842F48072A0
:1025EC001A600BE0FB681B6B122B07D1FB681B6896
:1025FC001A68FB681B6842F480721A603B6800938F
:10260C007B6800224FF00111F86800F04FF8034688
:10261C00002B0DD0FB681B681B6803F48073B3F5AB
:10262C00807F03D1FB684FF400721A64032335E0FA
:10263C00FB681B69B3F5804F08D17B89DBB21A4666
:10264C00FB681B6802F0FE021A611BE07B89DB1140
:10265C00DBB203F00603DBB263F00F03DAB2FB6804
:10266C001B681A613B687A680E49F86800F098F8A4
:10267C000346002B01D0012310E07B89DAB2FB6802
:10268C001B681A613B687A680749F86800F088F89B
:10269C000346002B01D0012300E000231846183715
:1026AC00BD4680BD080001000200010080B584B069
:1026BC0000AFF860B9603B601346FB7148E03B68C3
:1026CC00B3F1FF3F44D0FFF71BFA0246BB69D31AA4
:1026DC003A689A4202D33B68002B39D1BB681B0C79
:1026EC00DBB2012B0DD1FB681B685B69DA43BB685D
:1026FC0013409BB2002B0CBF01230023DBB21A4604
:10270C000CE0FB681B689B69DA43BB6813409BB207
:10271C00002B0CBF01230023DBB21A46FB799A4233
:10272C0016D1FB6800221A63FB68202283F83D2037
:10273C00FB68002283F83E20FB681B6C43F02002F0
:10274C00FB681A64FB68002283F83C20012323E019
:10275C00BB681B0CDBB2012B0DD1FB681B685B69E2
:10276C00DA43BB6813409BB2002B0CBF0123002340
:10277C00DBB21A460CE0FB681B689B69DA43BB684A
:10278C0013409BB2002B0CBF01230023DBB21A4673
:10279C00FB799A4293D0002318461037BD4680BD72
:1027AC0080B584B000AFF860B9607A603B6071E0CE
:1027BC00FB681B685B6903F48063B3F5806F23D1FE
:1027CC00FB681B681A68FB681B6842F400721A608D
:1027DC00FB681B686FF480625A61FB6800221A6305
:1027EC00FB68202283F83D20FB68002283F83E2002
:1027FC00FB681B6C43F00402FB681A64FB68002244
:10280C0083F83C20012367E07B68B3F1FF3F41D0A4
:10281C00FFF776F902463B68D31A7A689A4202D3DC
:10282C007B68002B36D1BB681B0CDBB2012B0CD1A7
:10283C00FB681B685B69DA43BB6813409BB2002BD7
:10284C0014BF01230023DBB20BE0FB681B689B6900
:10285C00DA43BB6813409BB2002B14BF0123002347
:10286C00DBB2002B16D0FB6800221A63FB68202217
:10287C0083F83D20FB68002283F83E20FB681B6C2C
:10288C0043F02002FB681A64FB68002283F83C20AA
:10289C00012321E0BB681B0CDBB2012B0CD1FB68C4
:1028AC001B685B69DA43BB6813409BB2002B14BFF7
:1028BC0001230023DBB20BE0FB681B689B69DA4346
:1028CC00BB6813409BB2002B14BF01230023DBB267
:1028DC00002B7FF46DAF002318461037BD4680BD2A
:1028EC0080B584B000AFF860B9607A6034E0F86805
:1028FC0000F086F80346002B01D0012334E0BB68BE
:10290C00B3F1FF3F28D0FFF7FBF802467B68D31AE0
:10291C00BA689A4202D3BB68002B1DD1FB681B68B6
:10292C005B6903F08003802B16D0FB6800221A63CE
:10293C00FB68202283F83D20FB68002283F83E20B0
:10294C00FB681B6C43F02002FB681A64FB680022D6
:10295C0083F83C20012307E0FB681B685B6903F0EC
:10296C008003802BC3D1002318461037BD4680BD91
:10297C0080B584B000AFF860B9607A6034E0F86874
:10298C0000F03EF80346002B01D0012334E0BB6875
:10299C00B3F1FF3F28D0FFF7B3F802467B68D31A98
:1029AC00BA689A4202D3BB68002B1DD1FB681B6826
:1029BC005B6903F00403042B16D0FB6800221A6336
:1029CC00FB68202283F83D20FB68002283F83E2020
:1029DC00FB681B6C43F02002FB681A64FB68002246
:1029EC0083F83C20012307E0FB681B685B6903F05C
:1029FC000403042BC3D1002318461037BD4680BDF9
:102A0C0080B483B000AF78607B681B685B6903F4AB
:102A1C008063B3F5806F1BD17B681B686FF4806299
:102A2C005A617B6800221A637B68202283F83D2060
:102A3C007B68002283F83E207B681B6C43F0040209
:102A4C007B681A647B68002283F83C20012300E039
:102A5C00002318460C37BD4680BC704780B586B045
:102A6C0000AF78607B68002B01D101236CE27B689E
:102A7C001B6803F00103002B00F08780924B5B680E
:102A8C0003F00C03042B0CD08F4B5B6803F00C038E
:102A9C00082B12D18C4B5B6803F48033B3F5803F69
:102AAC000BD1894B1B6803F40033002B6CD07B6873
:102ABC005B68002B68D1012346E27B685B68B3F549
:102ACC00803F06D1804B1B687F4A43F480331360F0
:102ADC002EE07B685B68002B0CD17B4B1B687A4A21
:102AEC0023F480331360784B1B68774A23F48023DC
:102AFC0013601DE07B685B68B3F5A02F0CD1724BA3
:102B0C001B68714A43F4802313606F4B1B686E4A39
:102B1C0043F4803313600BE06B4B1B686A4A23F45D
:102B2C0080331360684B1B68674A23F4802313605F
:102B3C007B685B68002B13D0FEF7E2FF386108E07E
:102B4C00FEF7DEFF02463B69D31A642B01D903233F
:102B5C00FAE15D4B1B6803F40033002BF0D014E05A
:102B6C00FEF7CEFF386108E0FEF7CAFF02463B696C
:102B7C00D31A642B01D90323E6E1534B1B6803F4EE
:102B8C000033002BF0D100E000BF7B681B6803F022
:102B9C000203002B63D04C4B5B6803F00C03002B3F
:102BAC000BD0494B5B6803F00C03082B1CD1464B34
:102BBC005B6803F48033002B16D1434B1B6803F086
:102BCC000203002B05D07B681B69012B01D001236C
:102BDC00BAE13D4B1B6823F0F8027B685B69DB00B4
:102BEC00394913430B603AE07B681B69002B20D0FA
:102BFC00364B01221A60FEF783FF386108E0FEF7BE
:102C0C007FFF02463B69D31A022B01D903239BE1B8
:102C1C002D4B1B6803F00203002BF0D02A4B1B68D2
:102C2C0023F0F8027B685B69DB00274913430B60D8
:102C3C0015E0264B00221A60FEF762FF386108E0AF
:102C4C00FEF75EFF02463B69D31A022B01D9032320
:102C5C007AE11D4B1B6803F00203002BF0D17B685B
:102C6C001B6803F00803002B3AD07B689B69002B90
:102C7C0019D0174B01221A60FEF742FF386108E0A9
:102C8C00FEF73EFF02463B69D31A022B01D9032300
:102C9C005AE10D4B5B6A03F00203002BF0D00120CC
:102CAC0000F0CCFA1CE00A4B00221A60FEF728FF59
:102CBC0038610FE0FEF724FF02463B69D31A022B62
:102CCC0008D9032340E100BF00100240000042423B
:102CDC00800442429E4B5B6A03F00203002BE9D155
:102CEC007B681B6803F00403002B00F0A680002314
:102CFC00FB75974BDB6903F08053002B0DD1944B84
:102D0C00DB69934A43F08053D361914BDB6903F049
:102D1C008053BB60BB680123FB758E4B1B6803F4AF
:102D2C008073002B18D18B4B1B688A4A43F4807339
:102D3C001360FEF7E5FE386108E0FEF7E1FE02469F
:102D4C003B69D31A642B01D90323FDE0814B1B682B
:102D5C0003F48073002BF0D07B68DB68012B06D169
:102D6C007B4B1B6A7A4A43F0010313622DE07B68AC
:102D7C00DB68002B0CD1764B1B6A754A23F00103E0
:102D8C001362734B1B6A724A23F0040313621CE038
:102D9C007B68DB68052B0CD16D4B1B6A6C4A43F0CE
:102DAC00040313626A4B1B6A694A43F00103136202
:102DBC000BE0674B1B6A664A23F001031362644BFA
:102DCC001B6A634A23F0040313627B68DB68002BE5
:102DDC0015D0FEF795FE38610AE0FEF791FE02462B
:102DEC003B69D31A41F28832934201D90323ABE0F9
:102DFC00574B1B6A03F00203002BEED014E0FEF7D6
:102E0C007FFE38610AE0FEF77BFE02463B69D31A6F
:102E1C0041F28832934201D9032395E04C4B1B6A53
:102E2C0003F00203002BEED1FB7D012B05D1484BA7
:102E3C00DB69474A23F08053D3617B68DB69002B45
:102E4C0000F08180424B5B6803F00C03082B61D0CF
:102E5C007B68DB69022B46D13F4B00221A60FEF7E0
:102E6C004FFE386108E0FEF74BFE02463B69D31A71
:102E7C00022B01D9032367E0354B1B6803F0007369
:102E8C00002BF0D17B681B6AB3F5803F08D1304B27
:102E9C005B6823F400327B689B682D4913434B60BD
:102EAC002B4B5B6823F474127B68196A7B685B6A32
:102EBC000B43274913434B60274B01221A60FEF743
:102ECC001FFE386108E0FEF71BFE02463B69D31A71
:102EDC00022B01D9032337E01D4B1B6803F0007351
:102EEC00002BF0D02FE01C4B00221A60FEF708FEDE
:102EFC00386108E0FEF704FE02463B69D31A022B48
:102F0C0001D9032320E0124B1B6803F00073002B44
:102F1C00F0D118E07B68DB69012B01D1012313E0B0
:102F2C000B4B5B68FB60FB6803F480327B681B6AAD
:102F3C009A4206D1FB6803F470127B685B6A9A4272
:102F4C0001D0012300E0002318461837BD4680BD90
:102F5C0000100240007000406000424280B584B016
:102F6C0000AF786039607B68002B01D10123D0E081
:102F7C006A4B1B6803F007033A689A4210D9674BF7
:102F8C001B6823F0070265493B6813430B60634BD6
:102F9C001B6803F007033A689A4201D00123B8E09A
:102FAC007B681B6803F00203002B20D07B681B6836
:102FBC0003F00403002B05D0594B5B68584A43F4CB
:102FCC00E06353607B681B6803F00803002B05D09B
:102FDC00534B5B68524A43F460535360504B5B68ED
:102FEC0023F0F0027B689B684D4913434B607B6870
:102FFC001B6803F00103002B40D07B685B68012B3E
:10300C0007D1474B1B6803F40033002B15D1012368
:10301C007FE07B685B68022B07D1414B1B6803F098
:10302C000073002B09D1012373E03D4B1B6803F0A7
:10303C000203002B01D101236BE0394B5B6823F0B9
:10304C0003027B685B68364913434B60FEF758FDFF
:10305C00F8600AE0FEF754FD0246FB68D31A41F211
:10306C008832934201D9032353E02D4B5B6803F064
:10307C000C027B685B689B009A42EBD1274B1B6868
:10308C0003F007033A689A4210D2244B1B6823F0D2
:10309C00070222493B6813430B60204B1B6803F06B
:1030AC0007033A689A4201D0012332E07B681B681F
:1030BC0003F00403002B08D0194B5B6823F4E06287
:1030CC007B68DB68164913434B607B681B6803F015
:1030DC000803002B09D0124B5B6823F460527B6809
:1030EC001B69DB000E4913434B6000F021F80246CC
:1030FC000B4B5B681B0903F00F030A49CB5C22FAEC
:10310C0003F3094A1360094B1B681846FEF7B6FC1B
:10311C00002318461037BD4680BD00BF002002407A
:10312C0000100240D8450008540000205800002030
:10313C0080B487B000AF0023FB600023BB6000238A
:10314C007B6100237B6000233B611E4B5B68FB6053
:10315C00FB6803F00C03042B02D0082B03D027E0F0
:10316C00194B3B6127E0FB689B0C03F00F03174ADC
:10317C00D35C7B60FB6803F48033002B10D0114BC5
:10318C005B685B0C03F00103114AD35CBB607B688A
:10319C000D4A02FB03F2BB68B2FBF3F37B6104E064
:1031AC007B680C4A02FB03F37B617B693B6102E0A9
:1031BC00054B3B6100BF3B6918461C37BD4680BCC4
:1031CC00704700BF0010024000127A00F045000862
:1031DC000046000800093D0080B400AF024B1B689C
:1031EC001846BD4680BC70475400002080B500AF27
:1031FC00FFF7F2FF0246054B5B681B0A03F007035F
:10320C000349CB5C22FA03F3184680BD0010024040
:10321C00E845000880B500AFFFF7DEFF0246054B1E
:10322C005B68DB0A03F007030349CB5C22FA03F368
:10323C00184680BD00100240E845000880B485B0F7
:10324C0000AF78600A4B1B680A4AA2FB03235B0A97
:10325C007A6802FB03F3FB6000BFFB685A1EFA603E
:10326C00002BF9D100BF00BF1437BD4680BC70479E
:10327C0054000020D34D621080B582B000AF78604E
:10328C007B68002B01D1012341E07B6893F83D3032
:10329C00DBB2002B06D17B68002283F83C207868D7
:1032AC00FEF768FA7B68022283F83D207B681A6877
:1032BC007B6804331946104600F05CFA7B680122E7
:1032CC0083F846207B68012283F83E207B6801222C
:1032DC0083F83F207B68012283F840207B68012221
:1032EC0083F841207B68012283F842207B6801220D
:1032FC0083F843207B68012283F844207B680122F9
:10330C0083F845207B68012283F83D200023184672
:10331C000837BD4680BD000080B485B000AF786032
:10332C007B6893F83D30DBB2012B01D001233AE0EE
:10333C007B68022283F83D207B681B68DA687B6817
:10334C001B6842F00102DA607B681B68184A9342E2
:10335C000ED07B681B68B3F1804F09D07B681B686B
:10336C00144A934204D07B681B68134A934211D1D0
:10337C007B681B689B6803F00703FB60FB68062BEC
:10338C0010D07B681B681A687B681B6842F00102CE
:10339C001A6007E07B681B681A687B681B6842F040
:1033AC0001021A60002318461437BD4680BC7047D2
:1033BC00002C0140000400400008004080B584B09F
:1033CC0000AF78607B681B68DB68FB607B681B6800
:1033DC001B69BB60BB6803F00203002B20D0FB68A9
:1033EC0003F00203002B1BD07B681B686FF00202FA
:1033FC001A617B6801221A777B681B689B6903F052
:10340C000303002B03D0786800F098F905E0786886
:10341C0000F08BF9786800F09AF97B6800221A7733
:10342C00BB6803F00403002B20D0FB6803F00403FB
:10343C00002B1BD07B681B686FF004021A617B6841
:10344C0002221A777B681B689B6903F44073002B7C
:10345C0003D0786800F072F905E0786800F065F93F
:10346C00786800F074F97B6800221A77BB6803F067
:10347C000803002B20D0FB6803F00803002B1BD0A3
:10348C007B681B686FF008021A617B6804221A774C
:10349C007B681B68DB6903F00303002B03D078689F
:1034AC0000F04CF905E0786800F03FF9786800F01E
:1034BC004EF97B6800221A77BB6803F01003002BCF
:1034CC0020D0FB6803F01003002B1BD07B681B681B
:1034DC006FF010021A617B6808221A777B681B68F0
:1034EC00DB6903F44073002B03D0786800F026F9F5
:1034FC0005E0786800F019F9786800F028F97B6825
:10350C0000221A77BB6803F00103002B0CD0FB6878
:10351C0003F00103002B07D07B681B686FF00102DE
:10352C001A617868FDF7EAFEBB6803F08003002B94
:10353C000CD0FB6803F08003002B07D07B681B6862
:10354C006FF080021A61786800F07FFABB6803F0B4
:10355C004003002B0CD0FB6803F04003002B07D07A
:10356C007B681B686FF040021A61786800F0F8F80D
:10357C00BB6803F02003002B0CD0FB6803F0200386
:10358C00002B07D07B681B686FF020021A617868EB
:10359C0000F052FA00BF1037BD4680BD80B584B034
:1035AC0000AF786039600023FB737B6893F83C3084
:1035BC00012B01D10223B4E07B68012283F83C206B
:1035CC007B68022283F83D207B681B689B68BB608C
:1035DC00BB6823F07703BB60BB6823F47F43BB60FD
:1035EC007B681B68BA689A603B681B68B3F5005F20
:1035FC003ED0B3F5005F00F28780B3F5805F00F03A
:10360C008680B3F5805F7FD8702B1AD0702B7BD857
:10361C00602B50D0602B77D8502B3CD0502B73D8CC
:10362C00402B58D0402B6FD8302B64D0302B6BD81C
:10363C00202B60D0202B67D8002B5CD0102B5AD0BD
:10364C0062E07B6818683B6899683B685A683B681D
:10365C00DB6800F074F97B681B689B68BB60BB6817
:10366C0043F07703BB607B681B68BA689A604FE0D5
:10367C007B6818683B6899683B685A683B68DB68EC
:10368C0000F05DF97B681B689A687B681B6842F4E4
:10369C0080429A603CE07B6818683B6859683B68DC
:1036AC00DB681A4600F0D4F87B681B68502118467A
:1036BC0000F02BF92CE07B6818683B6859683B6874
:1036CC00DB681A4600F0F2F87B681B68602118462C
:1036DC0000F01BF91CE07B6818683B6859683B6874
:1036EC00DB681A4600F0B4F87B681B68402118466A
:1036FC0000F00BF90CE07B681A683B681B681946F4
:10370C00104600F002F903E00123FB7300E000BF58
:10371C007B68012283F83D207B68002283F83C20E3
:10372C00FB7B18461037BD4680BD80B483B000AF1C
:10373C00786000BF0C37BD4680BC704780B483B046
:10374C0000AF786000BF0C37BD4680BC704780B4BA
:10375C0083B000AF786000BF0C37BD4680BC7047AB
:10376C0080B483B000AF786000BF0C37BD4680BC1E
:10377C007047000080B485B000AF786039607B681A
:10378C001B68FB607B682F4A93420BD07B68B3F1BC
:10379C00804F07D07B682C4A934203D07B682B4A1E
:1037AC00934208D1FB6823F07003FB603B685B68B5
:1037BC00FA681343FB607B68224A93420BD07B6808
:1037CC00B3F1804F07D07B681F4A934203D07B68CC
:1037DC001E4A934208D1FB6823F44073FB603B689C
:1037EC00DB68FA681343FB60FB6823F080023B68DC
:1037FC005B691343FB607B68FA681A603B689A68E4
:10380C007B68DA623B681A687B689A627B680D4A4F
:10381C00934203D13B681A697B681A637B68012267
:10382C005A617B681B6903F00103002B05D07B6890
:10383C001B6923F001027B681A6100BF1437BD4677
:10384C0080BC7047002C0140000400400008004080
:10385C0080B487B000AFF860B9607A60FB681B6A0F
:10386C007B61FB681B6A23F00102FB681A62FB6830
:10387C009B693B613B6923F0F0033B617B681B0157
:10388C003A6913433B617B6923F00A037B617A69D4
:10389C00BB6813437B61FB683A699A61FB687A6980
:1038AC001A6200BF1C37BD4680BC704780B487B01D
:1038BC0000AFF860B9607A60FB681B6A7B61FB68DB
:1038CC001B6A23F01002FB681A62FB689B693B6160
:1038DC003B6923F470433B617B681B033A691343D8
:1038EC003B617B6923F0A0037B61BB681B017A6998
:1038FC0013437B61FB683A699A61FB687A691A62C7
:10390C0000BF1C37BD4680BC704780B485B000AF8B
:10391C00786039607B689B68FB60FB6823F0700300
:10392C00FB603A68FB68134343F00703FB607B685A
:10393C00FA689A6000BF1437BD4680BC704780B4EB
:10394C0087B000AFF860B9607A603B60FB689B6839
:10395C007B617B6923F47F437B613B681A027B6844
:10396C001A43BB6813437A6913437B61FB687A691A
:10397C009A6000BF1C37BD4680BC704780B485B0D0
:10398C0000AF786039607B6893F83C30012B01D133
:10399C00022346E07B68012283F83C207B680222EC
:1039AC0083F83D207B681B685B68FB607B681B6849
:1039BC009B68BB60FB6823F07003FB603B681B6873
:1039CC00FA681343FB607B681B68FA685A607B6873
:1039DC001B68164A93420ED07B681B68B3F1804F6C
:1039EC0009D07B681B68124A934204D07B681B6821
:1039FC00104A93420CD1BB6823F08003BB603B6838
:103A0C005B68BA681343BB607B681B68BA689A60D2
:103A1C007B68012283F83D207B68002283F83C20E0
:103A2C00002318461437BD4680BC7047002C01405B
:103A3C00000400400008004080B483B000AF786000
:103A4C0000BF0C37BD4680BC704780B483B000AF5C
:103A5C00786000BF0C37BD4680BC704780B582B023
:103A6C0000AF78607B68002B01D1012342E07B68BA
:103A7C0093F84130DBB2002B06D17B68002283F82F
:103A8C0040207868FDF79AFE7B68242283F8412059
:103A9C007B681B68DA687B681B6822F40052DA606A
:103AAC00786800F02BF87B681B681A697B681B68C8
:103ABC0022F490421A617B681B685A697B681B6808
:103ACC0022F02A025A617B681B68DA687B681B68E3
:103ADC0042F40052DA607B6800225A647B68202230
:103AEC0083F841207B68202283F842207B680022E7
:103AFC005A63002318460837BD4680BD80B584B094
:103B0C0000AF78607B681B681B6923F440517B68AD
:103B1C00DA687B681B680A431A617B689A687B6861
:103B2C001B691A437B685B691343BB607B681B682A
:103B3C00DB6823F4B05323F00C037A681268B9687D
:103B4C000B43D3607B681B685B6923F440717B6813
:103B5C009A697B681B680A435A617B681B682C4A0C
:103B6C00934203D1FFF756FBF86002E0FFF73EFBF0
:103B7C00F860FA6813469B0013449A001A447B6859
:103B8C005B689B00B2FBF3F3224AA2FB03235B09A5
:103B9C001901FA6813469B0013449A001A447B6877
:103BAC005B689B00B2FBF3F21A4BA3FB02035B09AD
:103BBC00642000FB03F3D31A1B013233154AA2FB1A
:103BCC0003235B0903F0F0031944FA6813469B00C6
:103BDC0013449A001A447B685B689B00B2FBF3F2B7
:103BEC000C4BA3FB02035B09642000FB03F3D31A09
:103BFC001B013233074AA2FB03235B0903F00F02BC
:103C0C007B681B680A449A6000BF1037BD4680BDB4
:103C1C00003801401F85EB51014B1868704700BFFD
:103C2C006000002070B500260C4D0D4C641BA410D8
:103C3C00A64209D100F06CFC00260A4D0A4C641B0C
:103C4C00A410A64205D170BD55F8043B9847013627
:103C5C00EEE755F8043B98470136F2E73846000882
:103C6C0038460008384600083C460008024B01461E
:103C7C00186800F05FB800BF60000020024B0146DE
:103C8C00186800F00BB800BF600000200346024427
:103C9C00934200D1704703F8011BF9E738B505468C
:103CAC00002943D051F8043C0C1F002BB8BFE4187A
:103CBC0000F0CAF81E4A1368104633B963601460EA
:103CCC002846BDE8384000F0C5B8A3420AD921689F
:103CDC006218934201BF1A685B68521822606360D5
:103CEC000460EDE71A465B680BB1A342FAD9116880
:103CFC005018A0420BD12068014450188342116027
:103D0C00DED118685B68014411605360D8E702D9B2
:103D1C000C232B60D4E7206821188B4201BF196853
:103D2C005B680918216063605460C9E738BD00BF47
:103D3C0024010020F8B5CD1C25F0030508350C2D09
:103D4C0038BF0C25002D064601DBA94203D90C23F4
:103D5C0033600020F8BD00F077F821490A6814465A
:103D6C009CB9204F3B6823B92146304600F03CF803
:103D7C0038602946304600F037F8431C23D10C2319
:103D8C003046336000F066F8E3E723685B1B17D41A
:103D9C000B2B03D923601C44256004E06368A2420A
:103DAC000CBF0B605360304600F054F804F10B006C
:103DBC00231D20F00700C21ACCD01B1AA350C9E750
:103DCC0022466468CCE7C41C24F00304A042E3D070
:103DDC00211A304600F008F80130DDD1CFE700BFE2
:103DEC00240100202801002038B50023054D04468D
:103DFC0008462B60FDF75AFD431C02D12B6803B11A
:103E0C00236038BD240200200EB46FF0004100B5D1
:103E1C009CB01DAB0290069007910491084809498B
:103E2C0053F8042B0591006802A9019300F074F873
:103E3C000022029B1A701CB05DF804EB03B07047B3
:103E4C00600000200802FFFF014800F0FBBA00BF31
:103E5C002C020020014800F0F6BA00BF2C02002012
:103E6C002DE9F0478E6882469E420C4690461F46CE
:103E7C0038D88A8912F4906F32D0256809690133D9
:103E8C00A5EB010965694B4405EB450505EBD575BB
:103E9C006D109D4238BF1D46530531D52946FFF79D
:103EAC0049FF064650B90C234FF0FF30CAF80030DA
:103EBC00A38943F04003A381BDE8F0874A462169FA
:103ECC0000F0D0FAA38923F4906343F08003A3811C
:103EDC0026614E4426603E466561A5EB0905A5604A
:103EEC00BE4200D93E4632464146206800F0C8FA30
:103EFC00A36822689B1B32440020A3602260DBE78E
:103F0C002A4600F0D7FA06460028E1D1504621692E
:103F1C00FFF7C4FEC7E700002DE9F04F98468B89E8
:103F2C0007461B060D4614469DB00ED50B6963B9AA
:103F3C004021FFF7FFFE2860286120B90C233B606D
:103F4C004FF0FF30D1E040236B6100230993202315
:103F5C008DF8293030234FF00109CDF80C80DFF8B3
:103F6C00A4818DF82A3023469A4613F8012B0AB106
:103F7C00252AF9D1BAEB040B0BD05B462246294615
:103F8C003846FFF76DFF013000F0AA80099A5A44B9
:103F9C0009929AF80030002B00F0A28000234FF019
:103FAC00FF32CDE905230AF1010A049307938DF83A
:103FBC0053301A935446052214F8011B514800F053
:103FCC0043FA049AD8B9D00644BF20238DF8533055
:103FDC00110744BF2B238DF853309AF800302A2B4D
:103FEC0015D0544600204FF00A0C079A214611F8C0
:103FFC00013B303B092B4ED9B0B1079214E0A0EB3A
:10400C00080309FA03F31343A2460493D2E7039B74
:10401C00191D1B680391002BBBBF5B4242F00202CF
:10402C0007930793B8BF049223782E2B0CD1637897
:10403C002A2B35D1039B02341A1D1B680392002BCB
:10404C00B8BF4FF0FF330593DFF8C8A003225046EA
:10405C00217800F0F9F940B14023A0EB0A0003FAF3
:10406C0000F0049B01340343049314F8011B062253
:10407C0025488DF8281000F0E7F9002838D0234B9C
:10408C001BBB039B073323F0070308330393099BE4
:10409C003344099367E70C4601200CFB0232A5E779
:1040AC0000234FF00A0C194601340593204610F8F2
:1040BC00012B303A092A03D9002BC5D00591C3E74F
:1040CC00044601230CFB0121F0E703AB00932A46C5
:1040DC0038460F4B04A9AFF30080421C0646D6D1DC
:1040EC00AB895B063FF52CAF09981DB0BDE8F08F8E
:1040FC0003AB00932A463846054B04A900F07CF824
:10410C00EBE700BF024600080C4600080000000068
:10411C006D3E0008084600082DE9F0471646994602
:10412C008A680B6907469342B8BF1346336091F80F
:10413C0043200C46DDF820800AB10133336023683C
:10414C00990642BF336802333360256815F00605C3
:10415C0006D104F1190AE36832689B1AAB4228DCD9
:10416C0094F84320131E226818BF012392062DD405
:10417C004946384604F14302C047013020D0236839
:10418C00E56803F00603042B18BF002532684FF0D6
:10419C000006A36808BFAD1A226908BF25EAE575B9
:1041AC009342C4BF9B1AED181A34B5421AD10020A1
:1041BC0008E00123524649463846C047013003D136
:1041CC004FF0FF30BDE8F0870135C4E73020E1182F
:1041DC0081F843005A1C94F845102244023382F8AB
:1041EC004310C5E70123224649463846C0470130F3
:1041FC00E6D00136D9E700002DE9FF470C46277EB3
:10420C009146782F80469A460C9904F1430207D8C0
:10421C00622F0AD8002F00F0D980582F00F0A4800C
:10422C0004F1420684F842703AE0A7F16303152BBF
:10423C00F6D801A050F823F09D420008B1420008C6
:10424C002D4200082D4200082D4200082D42000886
:10425C00B14200082D4200082D4200082D420008F2
:10426C002D420008BF430008E1420008A1430008AA
:10427C002D4200082D420008E14300082D420008A1
:10428C00E14200082D4200082D420008A943000815
:10429C000B6804F142061A1D1B680A6084F8423050
:1042AC000123A4E0256808682E0600F104030AD552
:1042BC0005680B60002D03DA2D236D4284F8433022
:1042CC000A235E4819E015F0400F05680B6018BF13
:1042DC002DB2EFE70B682568181D0860280601D57C
:1042EC001D6802E06906FBD51D886F2F0CBF0823E3
:1042FC000A235248002184F843106668002EA8BF98
:10430C002168A660A4BF21F0040121600DB9002E24
:10431C004DD01646B5FBF3F103FB1157C75D06F8FC
:10432C00017D2F46BB420D46F4D9082B0BD12368D7
:10433C00DF0708D5236961689942DEBF302306F890
:10434C00013C06F1FF36921B22614B46214640464A
:10435C00CDF800A003AAFFF7DFFE01304CD14FF0DF
:10436C00FF3004B0BDE8F087344884F845700E681F
:10437C00236856F8045B1F060E6014D5D90744BF9A
:10438C0043F0200323601DB9236823F0200323602E
:10439C001023AFE7236843F02003236078232848D9
:1043AC0084F84530E3E75E0648BFADB2E6E7164653
:1043BC00BBE70B6826681D1D60690D6035061B6820
:1043CC0001D5186002E07106FBD518800023164653
:1043DC002361BAE70B681A1D0A601E68002130467B
:1043EC00626800F031F808B1801B6060636823617B
:1043FC00002384F84330A8E73246494640462369F7
:10440C00D0470130ABD023689B0713D4E068039BE3
:10441C009842B8BF1846A4E70123324649464046A5
:10442C00D04701309BD00135E36803995B1AAB424E
:10443C00F2DCEBE7002504F11906F5E7134600085A
:10444C002446000870477047034610B5C9B20244B1
:10445C009342184601D1002003E0047801338C42CA
:10446C00F6D110BD0A44914200F1FF3300D17047E0
:10447C0010B511F8014B914203F8014FF9D110BD61
:10448C00884210B501EB020402D98442234607D8B6
:10449C00431EA14208D011F8012B03F8012FF8E7B5
:1044AC00014602448A4200D110BD13F8014D02F8B6
:1044BC00014DF7E7F8B5074614460E4621B91146EB
:1044CC00BDE8F840FFF736BC22B9FFF7E7FB2546FD
:1044DC002846F8BD00F014F8A0420FD22146384609
:1044EC00FFF728FC05460028F2D031462246FFF79C
:1044FC00B9FF31463846FFF7D1FBE9E73546E7E728
:10450C0051F8043C181F002BBCBF0B58C018704747
:10451C00F8B500BFF8BC08BC9E467047F8B500BFA4
:08452C00F8BC08BC9E46704774
:104534004D6F643A204D4F44205245440000000022
:10454400526564204475723A2000000030257500DD
:10455400257500004D6F643A204D4F4420414D4273
:1045640045520000416D626572204475723A200024
:104574004D6F643A204D4F4420475245454E00004C
:10458400477265656E204475723A20004D6F643A37
:10459400204641554C5420434F4E444900000000EE
:1045A4005945533A203100004E4F3A203300000061
:1045B400566572746963616C3A2000003025750099
:1045C40025750000486F72697A6F6E74616C3A20C9
:1045D40000000000000000000000000001020304CD
:1045E4000607080900000000010203040203040591
:1045F400060708090A0B0C0D0E0F10100102232DDB
:10460400302B2000686C4C006566674546470030D7
:104614003132333435363738394142434445460024
:104624003031323334353637383961626364656624
:044634000000000082
:044638003101000844
:04463C000D01000864
:104640000100000001000000010000000100000066
:104650000100000001000000010000000100000056
:104660000100000001000000010000000100000046
:10467000C8000000C8000000C800000001000000E1
:104680000100000088130000D0070000B80B0000F4
:104690000100000000127A0010000000010000007C
:1046A0006400002000000000000000000000000086
:1046B00000000000000000000000000000000000FA
:1046C00000000000000000000000000000000000EA
:1046D00000000000000000000000000000000000DA
:1046E00000000000000000000000000000000000CA
:1046F00000000000000000000000000000000000BA
:0447000000000000B5
:0400000508001A11C4
:00000001FF
